{
  "contractName": "HelloWorld",
  "abi": [
    {
      "inputs": [
        {
          "internalType": "string",
          "name": "mess",
          "type": "string"
        }
      ],
      "name": "contructor",
      "outputs": [],
      "stateMutability": "nonpayable",
      "type": "function"
    },
    {
      "inputs": [
        {
          "internalType": "string",
          "name": "mess",
          "type": "string"
        }
      ],
      "name": "SetMessage",
      "outputs": [],
      "stateMutability": "nonpayable",
      "type": "function"
    },
    {
      "inputs": [],
      "name": "GetMessage",
      "outputs": [
        {
          "internalType": "string",
          "name": "",
          "type": "string"
        }
      ],
      "stateMutability": "view",
      "type": "function"
    }
  ],
  "bytecode": "0x608060405234801561001057600080fd5b506104e9806100206000396000f3fe608060405234801561001057600080fd5b50600436106100415760003560e01c806303e33b53146100465780632e3f93fd1461006457806388fabb3a14610080575b600080fd5b61004e61009c565b60405161005b919061029e565b60405180910390f35b61007e60048036038101906100799190610409565b61012e565b005b61009a60048036038101906100959190610409565b610148565b005b6060600080546100ab90610481565b80601f01602080910402602001604051908101604052809291908181526020018280546100d790610481565b80156101245780601f106100f957610100808354040283529160200191610124565b820191906000526020600020905b81548152906001019060200180831161010757829003601f168201915b5050505050905090565b8060009080519060200190610144929190610162565b5050565b806000908051906020019061015e929190610162565b5050565b82805461016e90610481565b90600052602060002090601f01602090048101928261019057600085556101d7565b82601f106101a957805160ff19168380011785556101d7565b828001600101855582156101d7579182015b828111156101d65782518255916020019190600101906101bb565b5b5090506101e491906101e8565b5090565b5b808211156102015760008160009055506001016101e9565b5090565b600081519050919050565b600082825260208201905092915050565b60005b8381101561023f578082015181840152602081019050610224565b8381111561024e576000848401525b50505050565b6000601f19601f8301169050919050565b600061027082610205565b61027a8185610210565b935061028a818560208601610221565b61029381610254565b840191505092915050565b600060208201905081810360008301526102b88184610265565b905092915050565b6000604051905090565b600080fd5b600080fd5b600080fd5b600080fd5b7f4e487b7100000000000000000000000000000000000000000000000000000000600052604160045260246000fd5b61031682610254565b810181811067ffffffffffffffff82111715610335576103346102de565b5b80604052505050565b60006103486102c0565b9050610354828261030d565b919050565b600067ffffffffffffffff821115610374576103736102de565b5b61037d82610254565b9050602081019050919050565b82818337600083830152505050565b60006103ac6103a784610359565b61033e565b9050828152602081018484840111156103c8576103c76102d9565b5b6103d384828561038a565b509392505050565b600082601f8301126103f0576103ef6102d4565b5b8135610400848260208601610399565b91505092915050565b60006020828403121561041f5761041e6102ca565b5b600082013567ffffffffffffffff81111561043d5761043c6102cf565b5b610449848285016103db565b91505092915050565b7f4e487b7100000000000000000000000000000000000000000000000000000000600052602260045260246000fd5b6000600282049050600182168061049957607f821691505b602082108114156104ad576104ac610452565b5b5091905056fea264697066735822122043ea21db6a38a5d9532dc3fa4c468778681b582a4f4ed6c191a345930658e83a64736f6c634300080a0033",
  "immutableReferences": {},
  "source": "pragma solidity >=0.4.22 <0.9.0;\n\ncontract HelloWorld {\n    string private message;\n\n    function contructor(string memory mess) public {\n        message = mess;\n    }\n\n    function SetMessage(string memory mess) public {\n        message = mess;\n    }\n\n    function GetMessage() public view returns (string memory) {\n        return message;\n    }\n}\n",
  "sourcePath": "/Users/que.quyen.vuong/Documents/Projects/blockchain-contract-study/contracts/HelloWorld.sol",
  "compiler": {
    "name": "solc",
    "version": "0.8.10+commit.fc410830.Emscripten.clang"
  },
  "schemaVersion": "3.4.3",
  "updatedAt": "2021-12-01T07:09:38.630Z",
  "devdoc": {
    "kind": "dev",
    "methods": {},
    "version": 1
  },
  "userdoc": {
    "kind": "user",
    "methods": {},
    "version": 1
  }
}